:0E2BA100C28090009CE054FDF0D281D2A322AD
:0E2BAF00E49000BAF090007A7414F0D2002284
:10001E00122B91121DF8122BA112000E122BAF12E1
:10002E002B2C122C1F122B6B122BCB122A65D2AF3C
:05003E00121B5980FBBC
:101D5E0041011C0041011D0041011E0041011F00F7
:041D6E00410120000F
:101B5900900139E07003021C1CE4F090011EE004BE
:101B6900F024FE602014600C14600E2403700C1223
:101B79000AC88011122BBD800C8000E490011EF070
:101B890090011C04F090011CE0605FE4F090011FDB
:101B9900E004F014B40A005047901BB075F003A498
:101BA900C58325F0C58373021BCE021BD3021BF329
:101BB900021BD8021BF3021BDD021BE2021BF3020C
:101BC9001BF3021BE71211C08020122A88801B1206
:101BD9002934801612266D801112202E800C800067
:101BE900E490011FF090011D04F090011DE06023B5
:101BF900E4F0900120E004F024FE600D24F8501375
:101C0900600A240970080221260210538000E4901A
:031C19000120F0B7
:011C1C0022A5
:100046009000BAE0B408004003020532900059F867
:1000560028287302008D0200710201360201740223
:1000660002210202F10203BD02050290009BA3E0F9
:1000760020E00630E60302053DE49000BBF0A3F065
:100086009000BAF0D2A32290007A7414F09000B4D3
:10009600E0FEA3E090007D75F00A121021EE75F0E7
:1000A6000AA42583F583E0FF9000B0E4F0A3EFF007
:1000B60090009CE020E62D9000BBE475F001120F45
:1000C6006DFED3E5F094B8EE940B4035D2A39000C4
:1000D6009CE0547FF0E49000BBF0A3F09000BA746B
:1000E60005F0801D9000BBE475F001120F6DFED384
:1000F600E5F094B8EE940B4008C2A39000BA7401E0
:10010600F090009BE0FEA3E0FF20E00302053DE443
:100116009000BBF0A3F09000BA7402F0D2A3EF20D7
:10012600E60302053DEE440290009BF0A3EFF022A9
:10013600D28090007A7414F09000BCE004F070064F
:100146009000BBE004F09000BBE0FEA3E0FF646417
:100156004E7005D28ED2A822EF64964E6003020539
:100166003D9000BBF0A3F09000BA7403F02290001B
:10017600B2E0FEA3E0FF9000B0E0FCA3E0FDC39F69
:10018600EC9E40030202129000B4E0FEA3E0900051
:100196008575F00A121021EE75F00AA42583F58301
:1001A600E0FFD3ED9FEC9400402F9000BBE475F088
:1001B60001120F6DFED3E5F09414EE940050030285
:1001C600053DE49000BBF0A3F09000B1E004F070B0
:1001D600359000B0E004F0802D9000BBE475F0018E
:1001E600120F6DFED3E5F09419EE9400500302054C
:1001F6003DE49000BBF0A3F09000B1E004F070067F
:100206009000B0E004F09000B00204C4E49000BB9B
:10021600F0A3F09000BA74040205299000B2E0FE43
:10022600A3E0FF12081090007AEFF09000B2E0FE13
:10023600A3E0FF9000B0E0FCA3E0FDD39FEC9E405E
:100246002C9000BBE475F001120F6DFAD3E5F09423
:1002560019EA94004048E49000BBF0A3F09000B186
:10026600E024FFF09000B0E034FFF08031C3ED9F52
:10027600EC9E502A9000BBE475F001120F6DFED380
:10028600E5F09419EE94004015E49000BBF0A3F05D
:100296009000B1E004F070069000B0E004F0900029
:1002A6009CE020E62E9000BCE004F070069000BBB7
:1002B600E004F0D39000BCE094B89000BBE0940B4F
:1002C6004011E4F0A3F090009CE0547FF09000BA57
:1002D6007405F090009CE030E00302053DE49000D8
:1002E600BBF0A3F09000BA7406F02290009CE044A4
:1002F60004F0900073E0700A90007A7408F07F01B1
:100306008020900073E0B4010A90007A740BF0E448
:10031600FF800F900073E0B4020B90007A7415F022
:10032600E4FF122AAA90009BA3E030E5229000BACF
:1003360030E0057402F080037406F090009CE054EF
:10034600FBF090007B74FFF0E49000BBF0A3F0900C
:10035600009CE030E71654FBF090007B74FFF0E45D
:100366009000BBF0A3F09000BA7404F090009CE0FB
:1003760020E60302053D54FBF090007B74FFF090ED
:10038600007A7411F09000BBE475F001120F6DFE57
:10039600D3E5F094A0EE940F500302053DE49000DF
:1003A600BBF0A3F090009CE030E0047F0480027F65
:1003B600009000BAEFF0229000B4E0FEA3E09000B7
:1003C6008575F00A121021EE75F00AA42583F583CF
:1003D600E0FFD39000B1E09F9000B0E09400403081
:1003E6009000BBE475F001120F6DFED3E5F09405A5
:1003F600EE9400500302053DE49000BBF0A3F0909C
:1004060000B1E024FFF09000B0E034FFF00204C435
:100416009000B4E0FEA3E090008175F00A1210216E
:10042600EE75F00AA42583F583E0FFD39000B1E0D2
:100436009F9000B0E09400402F9000BBE475F0015F
:10044600120F6DFED3E5F09414EE940050030205EE
:100456003DE49000BBF0A3F09000B1E024FFF090E3
:1004660000B0E034FFF080569000B4E0FEA3E090C8
:10047600007D75F00A121021EE75F00AA42583F5A9
:1004860083E0FFD39000B1E09F9000B0E09400407D
:100496003B9000BBE475F001120F6DFED3E5F094BE
:1004A6001EEE9400500302053DE49000BBF0A3F05D
:1004B6009000B1E024FFF09000B0E034FFF0E0FEE1
:1004C600A3E0FF12081090007AEFF0229000BBE440
:1004D60075F001120F6DFED3E5F094C8EE9400405E
:1004E6005690009CE054FDF0D281C28EC2A8E490E2
:1004F60000BBF0A3F09000BA7407F0229000BBE4B2
:1005060075F001120F6DFED3E5F094F4EE94014000
:100516002690007A7414F0C280E49000BBF0A3F039
:100526009000BAF090009CE054DFF022E49000BB0B
:08053600F0A3F09000BAF022DE
:10053E009000BAE0603E24FE700302065824FE705E
:10054E00030206D314700302072824FE7003020769
:10055E00D12406600302080490009BA3E020E0066D
:10056E0030E60302080FE49000BBF0A3F09000BA4F
:10057E00F0D2A32290007A7414F090009CE020E652
:10058E002D9000BBE475F001120F6DFED3E5F094D3
:10059E00B8EE940B4035D2A390009CE0547FF0E46B
:1005AE009000BBF0A3F09000BA7405F0801D90008F
:1005BE00BBE475F001120F6DFED3E5F094B8EE9426
:1005CE000B4008C2A39000BA7401F090009CE0208A
:1005DE00E00302080FE49000BBF0A3F09000BA74A1
:1005EE0002F0D2A390009CE054FDF0D2819000B4B2
:1005FE00E0FEA3E090008675F00A121021EE75F071
:10060E000AA42583F583E0FF9000B0E4F0A3EFF099
:10061E009000B4A3E090008675F00A121021EE75DA
:10062E00F00AA42583F583E0FF9000B2E4F0A3EF77
:10063E00F090009BE0FEA3E0FF20E60302080FEE21
:10064E00440290009BF0A3EFF022D28090007A74C7
:10065E0014F09000BCE004F070069000BBE004F0D3
:10066E009000BBE07004A3E06464600302080F9086
:10067E0000B4E0FEA3E090008675F00A121021EEA1
:10068E0075F00AA42583F583E0FF9000B0E4F0A393
:10069E00EFF09000B4A3E090008675F00A121021DE
:1006AE00EE75F00AA42583F583E0FF9000B2E4F026
:1006BE00A3EFF0D28ED2A890009CE054DFF0900011
:1006CE00BA7404F0229000B2E0FEA3E0FF1208100C
:1006DE0090007AEFF090009BA3E0FF20E6279000B9
:1006EE00BCE004F070069000BBE004F0D39000BCB8
:1006FE00E094B89000BBE0940B400AE4F0A3F090B5
:10070E0000BA7405F0EF30E00302080FE49000BB6E
:10071E00F0A3F09000BA7407F02290009CE044041D
:10072E00F0900073E0700A90007A7408F07F0180F8
:10073E0020900073E0B4010A90007A740BF0E4FF8D
:10074E00800F900073E0B4020B90007A7415F0E401
:10075E00FF122AAA90009BA3E030E5229000BA3047
:10076E00E0057402F080037407F090009CE054FBE7
:10077E00F090007B74FFF0E49000BBF0A3F09000CB
:10078E009CE030E67C54FBF090007B74FFF0900010
:10079E007A7411F09000BBE475F001120F6DFED368
:1007AE00E5F094A0EE940F4058E49000BBF0A3F057
:1007BE0090009CE030E0047F0480027F009000BA3D
:1007CE00EFF02290009CE054FDF0D281C28EC2A8C0
:1007DE009000BBE475F001120F6DFED3E5F094F4BA
:1007EE00EE9401401C90007A7414F0C28090009C2C
:1007FE00E054DFF08000E49000BBF0A3F09000BA6C
:02080E00F022D6
:0E2BBD0090009BE030E30302004612053E222A
:101D720041012100420122000041012400410125CC
:011D82000060
:10198700900121E014601F14605E147003021A4175
:1019970024036003021A8830B30930B60630B70350
:1019A700021A88021A3930B30630B60320B72D90D1
:1019B7000121E004F020B3099001247401F0021A18
:1019C7008820B6099001247402F0021A8830B70300
:1019D700021A889001247403F0021A88E490012403
:1019E700F0900121F0021A8830B33230B62F30B7A9
:1019F7002CE4900121F0A3F0A3F0A3E0FEB40105CD
:101A0700E4F07F0122EEB40208E4900124F07F02A3
:101A170022900124E0B40305E4F07F032290012221
:101A2700E475F001120F6DFED3E5F09432EE9400E9
:101A3700404F900121E004F08047900122E475F0C7
:101A470001120F6DFEC3E5F09432EE94004032E4CC
:101A5700900122F0A3F020B3037F112220B6037F69
:101A6700122220B7037F132230B31630B61330B7D4
:101A770010E4900124F0900121F0A3F0A3F07FFF80
:031A8700227F00BB
:011A8A002239
:1011C000E49000BEF0A3F090009CE030E503021331
:1011D00026121987EF700302132624FE70030212F1
:1011E0006C1470030212B124F2603A1470030212FC
:1011F000761470030212B82414700302132124FE23
:10120000600302132690009CE030E00454FE800648
:1012100090009CE04401F04420F090009BE04401E9
:10122000F0A3E0F022900125E004F0E0D394FA402E
:101230000374FAF0900125E004F0640C60030213DB
:1012400026122C329000BEEFF07005E064016003BE
:10125000022AC79000BEE070047F01800C9000BE9F
:10126000E064016003021326FF022B4290009BE022
:1012700020E30302132690009CE020E003021326E3
:101280004480F090009BE04402F0A3E0F0E4900082
:10129000BBF0A3F09000B2E0FEA3E0FF12081090B4
:1012A00000BFEFF0E014F0C3940150427401F080ED
:1012B0003D90009BE030E36E90009CE030E067449E
:1012C00080F090009BE04402F0A3E0F0E49000BBCB
:1012D000F0A3F09000B2E0FEA3E0FF12081090002F
:1012E000BFEFF0E004F0D3940A4003740AF09000DA
:1012F000BFE0FF9000B4E0FCA3E090007C75F00A32
:10130000121021EC75F00AA42583F583E5822FF5F0
:1013100082E43583F583E0FF9000B2E4F0A3EFF0C0
:0613200022E4900125F01B
:0113260022A4
:10105300E4FB9000B4E0FEA3E0FFEE60030211AEF8
:10106300EF14606214700302113224026003021150
:10107300AE90009BE04410F0A3E0F090009BE0549E
:10108300DFF054BFF02092030211AE309406309388
:10109300030211AE90009CE04480F090009BE0447A
:1010A30002F0A3E0F09000B2E0FEA3E0FF1208100C
:1010B300AB079000B4E4209406F0A304F0805DF045
:1010C300A37402F0805690009BE04440F0A3E0F04C
:1010D30090009BE054EFF054DFF02094030211AE34
:1010E3003092063093030211AE90009CE04480F0EE
:1010F30090009BE04402F0A3E0F09000B2E0FEA376
:10110300E0FF120810AB07209209E49000B4F0A3AB
:10111300F080099000B4E4F0A37402F09000B4E00E
:10112300FEA3E090007C75F00A121021EE8060901F
:10113300009BE04440F0A3E0F090009BE054EFF00C
:1011430054DFF030936530920320945F90009CE06D
:101153004480F090009BE04402F0A3E0F09000B2E2
:10116300E0FEA3E0FF120810AB07209209E4900011
:10117300B4F0A3F080089000B4E4F0A304F090006E
:10118300B4E0FCA3E090007C75F00A121021EC752A
:10119300F00AA42583F583E5822BF582E43583F5F4
:1011A30083E0FF9000B2E4F0A3EFF090009BE03007
:0C11B30082074408F0A3E0F02254F7F09B
:0111BF00220D
:102B16000028B6BA78DADEA8FFFB7DFD5FC73FD78F
:062B2600D546F56FEF102B
:051D8300420101009681
:1029F300E4FEEFA806088002C333D8FC30E704D214
:102A0300968002C296C2950000D2950EEEB408E2FB
:062A1300C2970000D297FB
:012A1900229A
:0D000E0090007B74FFF09000FFF0A3F02243
:10202E0090009CE030E27B9000FCE0FB603290017F
:10203E0001E0FCA3E0FDC39000FEE09D9000FDE0FA
:10204E009C401D90007BE0FE9000FFE0FDEE4D9069
:10205E00007BF0E49000FDF0A3F09000FCF08034E3
:10206E00EB7031900101E0FEA3E0FFC39000FEE0B3
:10207E009F9000FDE09E401C90007BE0FF900100D1
:10208E00E0FEEF5E90007BF0E49000FDF0A3F09098
:10209E0000FC04F09000FEE004F070069000FDE0FD
:0320AE0004F02219
:102AAA009000FF74FFF0E4A3F0EF7007A3F0A374A3
:0D2ABA0096F022900101E4F0A37419F022BF
:092BFE009000FF74FFF0A3F02227
:102A880090007BE0FF90007AE05F90007CF0D394A8
:102A98001540037415F090007CE0902B1693FF020C
:022AA80029F310
:10081000E4FD9000B4E0FAA3E090007D75F00A12C8
:100820001021EA75F00AA42583F583E0FB7A00C362
:10083000EF9BEE9A5003020AC5C3EF9BEE9A402845
:100840009000B4E0FAA3E090007E75F00A12102147
:10085000EA75F00AA42583F583E0FBC3EF9BEE94D1
:100860000050057D01020AC59000B4E0FAA3E090B3
:10087000007E75F00A121021EA75F00AA42583F5AE
:1008800083E0FBC3EF9BEE940040269000B4A3E00E
:1008900090007F75F00A121021EA75F00AA42583F2
:1008A000F583E0FBC3EF9BEE940050057D02020A46
:1008B000C59000B4E0FAA3E090007F75F00A121032
:1008C00021EA75F00AA42583F583E0FBC3EF9BEED4
:1008D000940040269000B4A3E090008075F00A12C6
:1008E0001021EA75F00AA42583F583E0FBC3EF9B92
:1008F000EE940050057D03020AC59000B4E0FAA30F
:10090000E090008075F00A121021EA75F00AA42523
:1009100083F583E0FBC3EF9BEE940040269000B488
:10092000A3E090008175F00A121021EA75F00AA484
:100930002583F583E0FBC3EF9BEE940050057D0417
:10094000020AC59000B4E0FAA3E090008175F00AB5
:10095000121021EA75F00AA42583F583E0FBC3EFAA
:100960009BEE940040269000B4A3E090008275F0C6
:100970000A121021EA75F00AA42583F583E0FBC36F
:10098000EF9BEE940050057D05020AC59000B4E08F
:10099000FAA3E090008275F00A121021EA75F00ABD
:1009A000A42583F583E0FBC3EF9BEE9400402690E3
:1009B00000B4A3E090008375F00A121021EA75F0EC
:1009C0000AA42583F583E0FBC3EF9BEE940050055A
:1009D0007D06020AC59000B4E0FAA3E0900083759A
:1009E000F00A121021EA75F00AA42583F583E0FBD2
:1009F000C3EF9BEE940040269000B4A3E0900084E7
:100A000075F00A121021EA75F00AA42583F583E037
:100A1000FBC3EF9BEE940050057D07020AC59000D2
:100A2000B4E0FAA3E090008475F00A121021EA7590
:100A3000F00AA42583F583E0FBC3EF9BEE9400400E
:100A4000259000B4A3E090008575F00A121021EA09
:100A500075F00AA42583F583E0FBC3EF9BEE9400B9
:100A600050047D08805F9000B4E0FAA3E090008518
:100A700075F00A121021EA75F00AA42583F583E0C7
:100A8000FB7A00C3EF9BEE9A4012EB2416FBEA338D
:100A9000FAC3EF9BEE9A50047D0980299000B4E0E0
:100AA000FAA3E090008575F00A121021EA75F00AA9
:100AB000A42583F583E02416FBE433FAC3EF9BEE11
:070AC0009A40027D0AAF0518
:010AC700220C
:051D88004201320000E1
:10293400E49000BEF0A3F0A3F09000B0E0FEA3E0AA
:10294400FFC374FA9FFFE49EFE7C007D11120F0604
:102954009000A9E02FFF9000A8E03E900132F0A380
:02296400EFF092
:01296600224E
:101D8D0042009B00004A009D19324B647D96AFC8FE
:101D9D00E1FA5E007D141B2532415367788AFA25DE
:101DAD002B333D495767788AFA32373E47525F6B7E
:101DBD00788AFA5300A71900FA0FA0005000FA0014
:091DCD000000FA00000000000013
:0D1DD60041012600420127000041012900C3
:10212600E49000BEF0122C329000BEEFF004604640
:1021360014B406005057902143F8282873022155FD
:1021460002216302216302216E02216E022199900F
:10215600009CE054BFF04408F054EFF02290009C3D
:10216600E054BFF04410800990009CE04440F054D5
:10217600EFF054F7F022900126E004F0D3943C40AF
:1021860012E4F090009CE054BFF0022AC79000BE13
:0321960074FFF0E3
:012199002223
:1026C300E4FDFC9000B4E0FAA3E0FBEA7042EB14F3
:1026D300601714602224027037EF2408FFE43EFEE3
:1026E3007C007D03120F06801EEF2431FFE43EC3FE
:1026F30013FCEF13FD8019EF2464FFE43EFEEF2586
:10270300E0FFEE33FE7C007D05120F18AC06AD072B
:04271300AE04AF055C
:01271700229F
:10220D00E4FDFC9000B4E0FAA3E0FBEA7052EB149D
:10221D006018146021240270477C007D05120F06A2
:10222D007D03120F18EF24F88031EF25E0FFEE3318
:10223D00FEEF24CF8025EF648A4E7010FC7D0512D1
:10224D000F06EEC313FEEF132488800F7C007D056F
:10225D00120F06EEC313FEEF13249CFDEE34FFFCAC
:10226D00D3ED94FFEC940040047C007DFFAE04AFF1
:01227D00055B
:01227E00223D
:10266D00E4FD9000BEF0A3F090009BE030E01890E8
:10267D00009B54FEF0A3E030E0047F0180027F0058
:10268D00AD077F0112284390009BE030E1279000B9
:10269D009B54FDF09000B2E0FEA3E0FF12220D90DE
:1026AD0000BEEEF0A3EFF0E4FCFD9000DE120FE4AF
:0526BD007F02121C1D4C
:0126C20022F5
:101E8C0090009BE020E203021F1B900129E01460EC
:101E9C001A1460381460582403707490009CE04449
:101EAC0002F0C281D2809001298040900127E47514
:101EBC00F001120F6DFED3E5F09432EE9400404F1A
:101ECC00C280E4900127F0A3F0A3801F900127E4C7
:101EDC0075F001120F6DFED3E5F09432EE940040D4
:101EEC002ED280E4900127F0A3F0A3E004F022901E
:101EFC000127E475F001120F6DFED3E5F09432EE7C
:0F1F0C009400400BC280E4900127F0A3F0A3F0F3
:011F1B0022A3
:051DE300420136000082
:10227F00EFC39430400CEFD39439500674D02FFF36
:10228F008022EFC39441400CEFD394465006EF24C5
:10229F00C9FF8010EFC39461400AEFD394665004D6
:1022AF00EF24A9FFEF540FC454F0FFEDC394304057
:1022BF000CEDD39439500674D02DFD801EEDC394D0
:1022CF00414008EDD394465002800CEDC394614019
:1022DF000AEDD394665004ED24A9FDED540F4FFF82
:0122EF0022CC
:0B20B1009000CCEBF0A3EAF0A3E9F0F4
:1020BC00A3120FF0000000009000CCE0FBA3E0FAAC
:1020CC00A3E04A4B7005FFFEFDFC229000CF120FDF
:1020DC00F0000000009000CCE0FBA3E475F00112CE
:1020EC000F83A9F0FA120E8C60219000CFE0FCA3B4
:1020FC00E0FDA3E0FEA3E02401FFE43EFEE43DFD91
:10210C00E43CFC9000CF120FE480CA9000CFE0FCBE
:09211C00A3E0FDA3E0FEA3E0FF37
:012125002297
:0B2615009000EAEBF0A3EAF0A3E9F06C
:102620009000F0EBF0A3EAF0A3E9F09000EAE0FB01
:10263000A3E0FAA3E04A4B7004FBFAF9229000EE03
:1026400074FFF5F0120F8345F060169000F0E0FB88
:10265000A3E475F001120F83A9F0FAED120ED280F7
:0C266000DC9000EAE0FBA3E0FAA3E0F944
:01266C00224B
:0B1327009000D3EBF0A3EAF0A3E9F084
:101332009000DBEBF0A3EAF0A3E9F09000D6E0F92D
:10134200A3E0FAA3E09000DEC9F0A3EAF0A3E9F07B
:101352009000D3E0FBA3E0FAA3E04A4B600CA3E0C9
:10136200FBA3E0FAA3E04A4B70077B007A00790006
:10137200229000DEE0FBA3E0FAA3E0F9C003C00282
:10138200C0019000DBA3E0FAA3E0F9D3D082D083BE
:10139200D0E0E99582EA958340339000DEA3E0FA3B
:1013A200A3E0F99000D9E0FEA3E0FFE92FF9EA3EBD
:1013B200FAC003C002C001A3A3E0FAA3E0F9D3D0AC
:1013C20082D083D0E0E99582EA95834056E490008A
:1013D200E1F0A3F09000D9E0FEA3E0FF9000E1E08D
:1013E200FCA3E0FDC39FEC9E40030214829000DE4A
:1013F200E0FBA3E0FAA3E0F98D828C83120EA5FF35
:101402009000DBE0FBA3E0FAA3E0F98D828C83EF8E
:10141200120EE49000E2E004F070069000E1E004B5
:10142200F080B19000D9E0FFA3E09000E1CFF0A3FB
:10143200EFF09000E1E0FEA3E0FFD39400EE940011
:10144200403E9000DEE0FBA3E0FAA3E0F9EF24FFC8
:10145200FFEE34FFFE8F82F583120EA5FD9000DBB6
:10146200E0FBA3E0FAA3E0F98F828E83ED120EE493
:101472009000E2E024FFF09000E1E034FFF080B25F
:0B1482009000D3E0FBA3E0FAA3E0F928
:01148D00223C
:0B23C6009000F3EBF0A3EAF0A3E9F0B5
:1023D1009000F9EBF0A3EAF0A3E9F09000F6E0FB3E
:1023E100A3E0FAA3E0F9120E8C60289000F6A3E4B2
:1023F10075F001120F83A9F0FA120E8CFF9000F311
:10240100E0FBA3E475F001120F83A9F0FAEF120EBD
:10241100D280C89000F3E0FBA3E0FAA3E0F9E41254
:0D2421000ED29000F9E0FBA3E0FAA3E0F971
:01242E00228B
:10219A0090010AEBF0A3EAF0A3E9F090010AE0FB50
:1021AA00A3E0FAA3E0F9120E8CFF602990010DE07A
:1021BA00FBA3E0FAA3E0F9120E8C6019B50716909A
:1021CA00010BE475F001120F6D90010EE475F00138
:1021DA00120F6D80C690010DE0FBA3E0FAA3E0F9AF
:1021EA00120E8CFF3395E0FE90010AE0FBA3E0FAA1
:1021FA00A3E0F9120E8CFD3395E0FCC3ED9FFFECD2
:03220A009EFE2213
:1024F90090012A120FE490012AE0FCA3E0FDA3E079
:10250900FEA3E0FF7818120FAAEF120ED290012A4B
:10251900E0FCA3E0FDA3E0FEA3E0FF7810120FAA00
:10252900900001EF120EE490012AE0FCA3E0FDA364
:10253900E0FEA3E0FF7808120FAA900002EF120E46
:10254900E490012AA3A3A3E0FF900003EF020EE4A5
:0B174A009000DFEBF0A3EAF0A3E9F051
:10175500A3120FF000000000120E8CFFE4FCFDFE4A
:101765009000E2120FE49000E2E0FCA3E0FDA3E0AC
:10177500FEA3E0FF7808120FD19000E2120FE4906B
:1017850000E2E0F8A3E0F9A3E0FAA3E0FBC000C0A3
:1017950001C002C0039000DFE0FBA3E0FAA3E0F97B
:1017A500900001120EA5FFD003D002D001D000EBAE
:1017B5004FFFEAFEE9FDE8FC9000E2120FE490001D
:1017C500E2E0FCA3E0FDA3E0FEA3E0FF7808120F32
:1017D500D19000E2120FE49000E2E0F8A3E0F9A353
:1017E500E0FAA3E0FBC000C001C002C0039000DF27
:1017F500E0FBA3E0FAA3E0F9900002120EA5FFD0EA
:1018050003D002D001D000EB4FFFEAFEE9FDE8FC72
:101815009000E2120FE49000E2E0FCA3E0FDA3E0FB
:10182500FEA3E0FF7808120FD19000E2120FE490BA
:1018350000E2E0F8A3E0F9A3E0FAA3E0FBC000C0F2
:1018450001C002C0039000DFE0FBA3E0FAA3E0F9CA
:10185500900003120EA5FFD003D002D001D000EBFB
:101865004FFFEAFEE9FDE8FC9000E2120FE490006C
:0C187500E2E0FCA3E0FDA3E0FEA3E0FF26
:011881002244
:062C2600900003E0FF2214
:102AC700E4900003F0FDFC7F0412235CE490000017
:0C2AD700F09000007407F0A3746AF02275
:062C2C00900001E0FF2210
:022B4200AD07DD
:102B4400E4FF900001F0FE1229C7EFFD7C007F0531
:032B540002235CFD
:062C3200900073E0FF2298
:082C0700E4FDFC7F0E02235CDA
:082C0F00E4FDFC7F2502235CBB
:0E255900900110EFF0A3EBF0A3EAF0A3E9F07D
:10256700E4FFFE900002E0B401020F22900110E0A8
:10257700FD1229C7E4FD1229C7900114E0FD1229B5
:10258700C7900115E0FD1229C7900111E0FBA3E0F8
:10259700FAA3E0F9A3E0FDA3E09000D1CDF0A3ED0D
:0F25A700F01222F9AD07AC067F0712235C7F010B
:0125B6002202
:072843009000D9EDF0AC0795
:10284A00E4FFFE900002E0B401020F22AD04122957
:10285A00C77D011229C7E4FD1229C77D011229C7C4
:10286A009000D9E07003FD80027D011229C7AD07EF
:09287A00AC067F0712235C7F010C
:012883002232
:021C1D00AD0711
:101C1F00E4FFFE900002E0B401020F221229C77DFB
:101C2F00021229C7E4FD1229C77D041229C7C00675
:101C3F00C0079000DEE0FCA3E0FDA3E0FEA3E0FF01
:101C4F007818120FAAAD07D007D0061229C7C00601
:101C5F00C0079000DEE0FCA3E0FDA3E0FEA3E0FFE1
:101C6F007810120FAAAD07D007D0061229C7C006E9
:101C7F00C0079000DEE0FCA3E0FDA3E0FEA3E0FFC1
:101C8F007808120FAAAD07D007D0061229C7C006D1
:101C9F00C0079000DEE0FCA3A3A3E0FFE4AD07D0F4
:101CAF0007D0061229C7AD07AC067F0712235C7F4A
:011CBF000123
:011CC0002201
:0E25B700900116EFF0A3EBF0A3EAF0A3E9F019
:1025C500E4FFFE900002E0B401020F22900116E044
:1025D500FD1229C77D031229C790011AE0FD1229B2
:1025E500C790011BE0FD1229C7900117E0FBA3E08E
:1025F500FAA3E0F9A3E0FDA3E09000D1CDF0A3EDAF
:0F260500F01222F9AD07AC067F0712235C7F01AC
:0126140022A3
:0728C400900138EDF0AC07B4
:1028CB00E4FFFE900002E0B401020F22AD041229D6
:1028DB00C77D041229C7E4FD1229C77D011229C740
:1028EB00900138E0FD1229C7AD07AC067F07122314
:0328FB005C7F01FE
:0128FE0022B7
:0215EE00AD0747
:1015F000E4900108F0A3F0900002E0B401037F0141
:1016000022900108E0FEA3E0FF1229C7900108EE36
:10161000F0A3EFF07D051229C7900108EEF0A3EFCB
:10162000F0E4FD1229C7900108EEF0A3EFF090015D
:1016300004E0FCA3E0FDA3E0FEA374FFFFE47BFF56
:10164000FAF9F8C3120F997020900108E0FEA3E0A8
:10165000FF7D011229C7900108EEF0A3EFF0900181
:1016600004A3A3A3E0FD02172F900104E0FCA3E074
:10167000FDA3A374FFFFFEE47BFF7AFFF9F8C3121A
:101680000F999001087009E0FEA3E0FF7D028057EA
:10169000E0FEA3E0FF7D041229C7900108EEF0A34D
:1016A000EFF0C006C007900104E0FCA3E0FDA3E05A
:1016B000FEA3E0FF7818120FAAAD07D007D00612DC
:1016C00029C7900108EEF0A3EFF0C006C007900113
:1016D00004E0FCA3E0FDA3E0FEA3E0FF7810120FFE
:1016E000AAAD07D007D0061229C7900108EEF0A3D3
:1016F000EFF0C006C007900104E0FCA3E0FDA3E00A
:10170000FEA3E0FF7808120FAAAD07D007D006129B
:1017100029C7900108EEF0A3EFF0C006C0079001C2
:1017200004E0FCA3A3A3E0FFE4AD07D007D00612BA
:1017300029C7900108EEF0A3EFF0900108E0FCA3A8
:09174000E0FD7F0712235C7F012C
:01174900227D
:0D2BD9009000D9ECF0A3EDF0120E8CFF225D
:0D2BE600900134ECF0A3EDF0120E8CFF22F4
:0B2BF3009000DDECF0A3EDF002174AAB
:101A8B009000BDEFF0900077E0FBA3E0FAA3E0F944
:101A9B00C003C002C001900074A3E0FAA3E0F9D325
:101AAB00D082D083D0E0E99582EA958340239000E1
:101ABB0077A3E0FAA3E0AE02FF900074A3E0FAA3D1
:101ACB00E09FFFEA9EFEC3EF9417EE648094805074
:101ADB007C900077E0FBA3E0FAA3E0F9C003C0021F
:101AEB00C001900074A3E0FAA3E0F9C3D082D083C5
:101AFB00D0E0E99582EA95835019900074A3A3E096
:101B0B00AE02FF900077A3E0FAA3E0C39FFFEA9E2B
:101B1B004F603A900074A3E0FAA3E0C39000739572
:101B2B0082EA9583400E9000747401F0A37400F068
:101B3B00A3745CF09000BDE0FF900074E0FBA3E4A5
:0E1B4B0075F001120F83A9F0FAEF120ED222EC
:100AC800E49000BEF0A3F0A3F0A3F0C3900137E0D8
:100AD800941F900136E0940050261228FFEFD3941B
:100AE80000401D122496900136E475F001120F8320
:100AF800FC740425F0F58274003CF583EFF080CB9C
:100B0800C3900137E09407900136E0940050030247
:100B18000CBB9000BEE0FEA3E0FFC3900137E09F4E
:100B2800FD900136E09EFCC3ED9407EC9400500361
:100B3800020C6E74042FF58274003EF583E0645550
:100B480060109000BFE004F070C89000BEE004F0B0
:100B580080C09000BEE0FEA3E0FF2405F58274008B
:100B68003EF583E064AA60109000BFE004F070A234
:100B78009000BEE004F0809A74062FF58274003E5F
:100B8800F583E060099000BFE02402020C49900060
:100B9800BEE0FCA3E0FD2408F58274003CF583E088
:100BA8009000C0F0A3E4F074092DF58274003CF5C0
:100BB80083E02407FFE433FE9000C1E02FF09000AB
:100BC800C0E03EF0E0FEA3E0FFD39426EE940040A0
:100BD800089000BFE0240380689000BEE0FCA3E01A
:100BE800FDC3900137E09DFD900136E09CFCD3EFFA
:100BF8009DEE9C50719000BEE0FEA3E02404F974C1
:100C0800003EFA7B019000C1E024FFFD9000C0E0A7
:100C180034FFFC12276CAD079000C0E0FAA3E0FB9C
:100C28009000BEE0FEA3E0FF2BFBEE3AFA74032B24
:100C3800F58274003AF583E06D60119000BFE024FE
:100C480003F09000BEE03400F0020B1A12148E90EC
:100C580000C0E0FEA3E0FF9000BFE02FF09000BED0
:100C6800E03EF0020B1A9000BEE0FEA3E0FFC39046
:100C78000137E09FFD900136E09EFCF0A3EDF0D334
:100C88009400EC9400402C74042FF974003EFA9000
:100C980000D67401F0A3EAF0A3E9F0900136E0FF72
:100CA800A3E09000D9CFF0A3EFF07B017A0079049C
:030CB800121327ED
:010CBB002216
:102A65009000747401F0A37400F0A3745CF09000FE
:102A7500777401F0A37400F0A3745CF09000737494
:032A8500FFF0223D
:071DE80044012E010102027B
:03000600022B5773
:102884009000B2A3E09000CBF090009CE07E00307A
:10289400E0047F0180027F009000CCEEF0A3EFF013
:1028A4009000CBE0FD7F011228439000CCE0FEA312
:1028B400E0FFE4FCFD9000DE120FE47F02021C1D29
:102A1A00122BD9AD07EF90009C6005E044018003BA
:102A2A00E054FEF04420F07F01122843EFB4010382
:052A3A007F01227F0076
:012A3F002274
:101CC100122BF39000D9120FE49000D9A3A3E0FEE8
:101CD100A3E0FF1226C39000B2EEF0A3EFF0A3E061
:101CE100FCA3E090007D75F00A121021EC75F00A5A
:101CF100A42583F583E0FD7C00C3EF9DEE9C500895
:101D01009000B2ECF0A3EDF0C39000B3E094969094
:101D110000B2E0940040239000B4E0FEA3E0900004
:101D21008675F00A121021EE75F00AA42583F58359
:101D3100E0FF9000B2E4F0A3EFF09000D9E0FCA343
:101D4100E0FDA3E0FEA3E0FF9000DE120FE47F02BE
:0C1D5100121C1DEFB401037F01227F0073
:011D5D002263
:102AE300EF7007ED6014B4011122EDD3941E400A78
:0B2AF30090009BE04404F0A3E0F02200
:0B27B6009000D3EBF0A3EAF0A3E9F0E1
:1027C100EF24FE601904702F9000D3E0FBA3E0FA20
:1027D100A3E0F9A3E0FCA3E0FD122A1A8014900003
:1027E100D3E0FBA3E0FAA3E0F9A3E0FCA3E0FD1230
:0C27F1001CC19000D8EFF09000D8E0FF71
:0127FD0022B9
:032C38007F0222F6
:102967007B2270223A22007A476E53625A464F7191
:102977006F30714348487300222C2276223A220096
:10298700312E302E3000222C226D223A0030007D6D
:01299700003F
:041DEF0041000000AF
:0829C7009000E2EEF0A3EFF036
:1029CF002429F974003EFA7B01ED120ED29000E338
:1029DF00E004F070069000E2E004F09000E2E0FE08
:0329EF00A3E0FF63
:0129F20022C2
:0922F0009000CBE0FF7E007BFFB3
:1022F9009000CEEBF0A3EAF0A3E9F09000CCEEF069
:03230900A3EFF04F
:10230C002429F974003EFA7B01C002C001A3E0F954
:10231C00A3E0FAA3E09000D6C9F0A3EAF0A3E9F099
:10232C009000D1E0FFA3E09000D9CFF0A3EFF0D064
:10233C0001D0021213279000D1E0FEA3E0FF900021
:0F234C00CDE02FF09000CCE03EF0E0FEA3E0FFEC
:01235B00225F
:102718009000E4EBF0A3EAF0A3E9F0A3ECF0A3ED5A
:10272800F09000E4E0FBA3E0FAA3E04A4B6034A396
:10273800E07002A3E0602C9000E774FFF5F0120F40
:102748008345F0601E9000E4E0FBA3E0FAA3E0F903
:10275800120E8CFF1200069000E5E475F001120FCE
:042768006D80D4228A
:10276C009000E4EBF0A3EAF0A3E9F0A3ECF0A3ED06
:01277C00F06C
:10277D00E4A3F0FFFED39000E8E09F9000E7E09E19
:10278D0040219000E4E0FBA3E475F001120F83A952
:10279D00F0FA120E8CFD9000E9E02DF00FBF000154
:0827AD000E80D29000E9E0FF6C
:0127B5002201
:08235C009000E2ECF0A3EDF0AB
:102364009000237455F0A374AAF0A37403F0A3EFB0
:10237400F09000E2E0FCA3E0FDEC900027F0EDA378
:10238400F09000E3E02407F09000E2E03400F07BFA
:10239400017A007923A3E024FFFD9000E2E034FFFA
:1023A400FC12276CAE079000E2E0FCA3E0FD2422BF
:1023B400F58274003CF583EFF07B017A0079230207
:0223C4002718D8
:102A4000E4FF900000E0700DFEFD1229C790000029
:102A50007401F080077E007D011229C7EFFD7C0024
:052A6000E4FF02235C0D
:10188200E49000CBF07BFF7A2979671220B19000B7
:10189200D1EEF0A3EFF07A2979671222F09000CB13
:1018A200EFF07BFF7A29796E1220B19000D1EEF031
:1018B200A3EFF07A29796E1222F09000CBEFF07B41
:1018C200FF7A29797F1220B19000D1EEF0A3EFF0D8
:1018D2009000CBE0FF7E007BFF7A29797F1222F90C
:1018E2009000CBEFF07BFF7A2979871220B190002C
:1018F200D1EEF0A3EFF09000CBE0FF7E007BFF7A09
:101902002979871222F99000CBEFF07BFF7A2979AF
:101912008D1220B19000D1EEF0A3EFF09000CBE059
:10192200FF7E007BFF7A29798D1222F99000CBEF9E
:10193200F07BFF7A2979941220B19000D1EEF0A3C6
:10194200EFF09000CBE0FF7E007BFF7A29799412C2
:1019520022F99000CBEFF07BFF7A2979961220B121
:101962009000D1EEF0A3EFF09000CBE0FF7E007B81
:10197200FF7A2979961222F99000CBEFF0FD7C00D4
:051982007F0102235C5F
:082C1700E4FDFC7F0202235CD6
:052998009000D2EFF0F9
:10299D00122C38E4FEEEC39F501D75F002EEA424F8
:1029AD002EF582E5F03401F583E0FD9000D2E0FCD8
:0929BD00ED6C60030E80DEAF0634
:0129C60022EE
:0B1FA8009000CBEBF0A3EAF0A3E9F0FF
:101FB300120E8C9000CEF0FD900001120EA5900041
:101FC300CFF0900002120EA59000D0F0A3E4F090A1
:101FD3000003120EA5FF9000D1E02FF09000D0E097
:101FE3003400F0AF0512299875F002EFA4242FF501
:101FF30082E5F03401F583E0FF9000CFE06F6003EA
:102003007F00229000CEE0FF9000CBE0FBA3E0FA3C
:10201300A3E02404F9E43AFA9000D0E0FDA3E090B1
:0A20230000D6CDF0A3EDF01227B6B1
:01202D002290
:08148E009000C2EEF0A3EFF0A4
:101496009000C2E0FEA3E02407F58274003EF583C7
:1014A600E0FF12102D14CA0014CD0114D00214D37B
:1014B6000314F00414F50514FC0615C50815C80E2A
:1014C600000015ED022A40021882022C179000C275
:1014D600E0FEA3E0240AF58274003EF583E0900066
:1014E60073F0E4FDFC7F0302235C9000038003900D
:1014F60000017401F0229000C2E0FCA3E0FD240884
:10150600F58274003CF583E09000C9F0A3E4F07422
:10151600092DF58274003CF583E0FF9000CAE02FA8
:10152600F09000C9E03400F0E49000C7F0A3F0901A
:1015360000C9E0FEA3E0FFC39000C8E09F9000C78B
:10154600E09E40030215EDE0FEA3E0FF9000C2E03E
:10155600FCA3E0FD2FFBEC3EFA740C2BF582740025
:101566003AF583E09000C4F0A3E4F0740D2BF58205
:1015760074003AF583E0FF9000C5E02FF09000C4B8
:10158600E03400F0740A2DF974003CFA7B019000F7
:10159600C7E0FEA3E029F9EA3EFA121FA89000C6AA
:1015A600EFF09000C5E02404FF9000C4E03400FE94
:1015B6009000C8E02FF09000C7E03EF0021535021B
:1015C60028849000C2E0FEA3E0FF240AF58274009E
:1015D6003EF583E0FD740B2FF58274003EF583E043
:0715E600FEAF05FD122AE330
:0115ED0022DB
:1028FF00900077E0FBA3E0FAA3E0F9C003C002C0A9
:10290F0001900074E0FBA3E0FAA3E0F9D082D0833A
:10291F00D0E06B7008E965827003EA658360037F1E
:05292F0001227F0022DF
:10249600900074E0FBA3E0FAA3E0F9C003C002C019
:1024A60001A3E0FBA3E0FAA3E0F9D082D083D0E059
:1024B6006B7008E965827003EA6583603590007782
:1024C600A3E0FAA3E0C39000739582EA9583400ED9
:1024D6009000777401F0A37400F0A3745CF0900090
:1024E60077E0FBA3E475F001120F83A9F0FA120E50
:0224F6008CFF59
:0124F80022C1
:041DF3004101390071
:102B6B00538E7F5389F0758A83758CFFC28DD2A9E2
:032B7B00D28C22D7
:0E2BCB00538EBF53890F438910C28FD2AB22A5
:03000B00022B7E47
:102B7E00C0E0C083C0829001397401F0D082D0834E
:032B8E00D0E03262
:03001B00022AFEB8
:102AFE00C0E0C083C08290009CE04402F0C281C25C
:082B0E008ED082D083D0E032AA
:0C0CBC009000BFF09000BE7401F07F03B8
:100CC800EFD3940540037F0122120E8CFED39403C8
:100CD80040037F0222EF7041EE700B900001120E6C
:100CE800A5F452935294120E8CB4010B9000011289
:100CF8000EA54293F45294120E8CFEB4020A900090
:100D080001120EA542934294EEB4030D9000011215
:100D18000EA5FEF45293EE4294EF64017043120E56
:100D28008CFE700B900001120EA5F452915292EEB7
:100D3800B4010B900001120EA54291F45292120ECA
:100D48008CB4020A900001120EA542914292120E32
:100D58008CB4030D900001120EA5FEF45291EE42E0
:100D680092EF64027043120E8CFE700B9000011219
:100D78000EA5F452955296EEB4010B900001120E96
:100D8800A54295F45296120E8CB4020A90000112F4
:100D98000EA542954296120E8CB4030D90000112D6
:100DA8000EA5FEF45295EE4296EF64037043120EC0
:100DB8008CFE700B900001120EA5F452B152B2EEE7
:100DC800B4010B900001120EA542B1F452B2120EFA
:100DD8008CB4020A900001120EA542B142B2120E62
:100DE8008CB4030D900001120EA5FEF452B1EE4230
:100DF800B2EF64047043120E8CFE700B9000011267
:100E08000EA5F452B352B4EEB4010B900001120EC9
:100E1800A542B3F452B4120E8CB4020A9000011227
:100E28000EA542B342B4120E8CB4030D9000011209
:100E38000EA5FEF452B3EE42B4EF64057043120EF1
:100E48008CFF700B900001120EA5F452C952CAEF24
:100E5800B4010B900001120EA542C9F452CA120E39
:100E68008CB4020A900001120EA542C942CA120EA1
:100E78008CB4030D900001120EA5FFF452C9EF4285
:040E8800CA7F0022FB
:101DF8009000BF74FFF0E49000BEF07B017A007998
:101E0800BEFF120CC89000BF74FFF0E49000BEF053
:101E18007F01120CC89000BF74FFF0E49000BEF080
:101E28007F02120CC89000BF74FFF0E49000BEF06F
:101E38007F03120CC89000BF74FFF0E49000BEF05E
:101E48007F04120CC89000BF74FFF0E49000BEF04D
:101E58007F05120CC89000BF7401F09000BE740397
:101E6800F0E4FF120CC89000BF7408F09000BE7434
:101E780003F07F02120CC87440120CBC7480120C60
:031E8800BC7F001C
:011E8B002234
:102B910075BA8090FE00E4F0A37404F0E4F5BA2263
:072C1F00C289C288D2A8227D
:0300030002242FA5
:10242F00C0E0C083C082C0D075D000C000C003C060
:10243F0004C005C006C00730B23890009CE054FDC0
:10244F00F0D281900132A3E0FBC374FF9BFF8F8B0F
:10245F00900132E0FEA3E0FBC374FF9BFF74FF9E6D
:10246F00FEE49400FDE49400FC7808120FBD8F8DFC
:10247F00D28ED007D006D005D004D003D000D0D054
:07248F00D082D083D0E032BF
:102B2C00759A50538EFB75D7F375D6FF438E1043B1
:062B3C009A1075AF0122A2
:102B57008F9BE59A20E1047F0180027F00EF70F2EE
:042B6700539AFD225E
:030043000227FE93
:1027FE00C0E0C0F0C083C082C0D075D000C000C0A1
:10280E0001C002C003C004C005C006C007E59A306F
:10281E00E008539AFEAF9B121A8BD007D006D00554
:10282E00D004D003D002D001D000D0D0D082D0833B
:05283E00D0F0D0E032F3
:03000000021F1CC0
:0C1F1C00787FE4F6D8FD758107021F6392
:100E8C00BB010689828A83E0225002E722BBFE0264
:090E9C00E32289828A83E4932297
:100EA500BB010CE58229F582E5833AF583E0225002
:100EB50006E92582F8E622BBFE06E92582F8E2224C
:0D0EC500E58229F582E5833AF583E4932266
:100ED200BB010689828A83F0225002F722BBFE01FF
:020EE200F322F9
:100EE400F8BB010DE58229F582E5833AF583E8F044
:100EF400225006E92582C8F622BBFE05E92582C8F0
:020F0400F222D7
:100F0600EF8DF0A4A8F0CF8CF0A428CE8DF0A42EFF
:020F1600FE22B9
:100F1800BC000BBE0029EF8DF084FFADF022E4CCBD
:100F2800F875F008EF2FFFEE33FEEC33FCEE9DEC86
:100F3800984005FCEE9DFE0FD5F0E9E4CEFD22EDCC
:100F4800F8F5F0EE8420D21CFEADF075F008EF2F16
:100F5800FFED33FD4007985006D5F0F222C398FD07
:050F68000FD5F0EA22A4
:100F6D00C5F0F8A3E028F0C5F0F8E582158270020F
:060F7D001583E038F022AC
:100F8300A3F8E0C5F025F0F0E58215827002158321
:060F9300E0C838F0E8227E
:100F9900EB9FF5F0EA9E42F0E99D42F0E89C45F0AE
:010FA9002225
:100FAA00E8600FECC313FCED13FDEE13FEEF13FF25
:030FBA00D8F12249
:100FBD00E86010ECA2E713FCED13FDEE13FEEF134A
:040FCD00FFD8F02237
:100FD100E8600FEFC333FFEE33FEED33FDEC33FC7E
:030FE100D8F12222
:0C0FE400ECF0A3EDF0A3EEF0A3EFF02280
:100FF000A8828583F0D083D08212100712100712C6
:101000001007121007E473E493A3C583C5F0C583EA
:10101000C8C582C8F0A3C583C5F0C583C8C582C84A
:0110200022AD
:0C102100A42582F582E5F03583F58322DA
:10102D00D083D082F8E4937012740193700DA3A352
:10103D0093F8740193F5828883E473740293686066
:06104D00EFA3A3A380DF66
:101F280002001EE493A3F8E493A34003F68001F2B1
:101F380008DFF48029E493A3F85407240CC8C333BA
:101F4800C4540F4420C8834004F456800146F6DF89
:101F5800E4800B0102040810204080901D5EE47E9E
:101F6800019360BCA3FF543F30E509541FFEE4937E
:101F7800A360010ECF54C025E060A840B8E493A345
:101F8800FAE493A3F8E493A3C8C582C8CAC583CA70
:101F9800F0A3C8C582C8CAC583CADFE9DEE780BE28
:011DF70000EB
:00000001FF
