:0E274E00C280900088E054FDF0D281D2A32218
:0E275C00E49000A6F090007A7414F0D20022EF
:10001E0012273E12190912274E12000E12275C12D9
:10002E0026D91227CC122718122778122612D2AFF1
:05003E001217A680FB73
:101AB900410108004101090041010A0041010B00EF
:041AC90041010C00CB
:1017A600900126E07003021864E4F090010AE00458
:1017B600F024FE602014600C14600E2403700C12DA
:1017C6000956801112276A800C8000E490010AF005
:1017D60090010804F0900108E0605FE4F090010BCE
:1017E600E004F014B40A0050479017FD75F003A406
:1017F600C58325F0C5837302181B02182002184002
:1018060002182502184002182A02182F0218400250
:10181600184002183412113D8020122635801B1202
:1018260024E18016121CCE8011121BC9800C800088
:10183600E490010BF090010904F0900109E0601EAC
:10184600E4F090010CE004F024FE24F85010600748
:0E18560024097005021DBC8000E490010CF016
:011864002261
:100046009000A6E0B4080040030204C5900059F8E9
:1000560028287302008D0200710201130201630257
:1000660001F60202C6020392020495900087A3E0FD
:1000760020E00630E6030204D0E49000A7F0A3F0E7
:100086009000A6F0D2A32290007A7414F090008813
:10009600E020E62D9000A7E475F0011207AEFED32E
:1000A600E5F094B8EE940B4035D2A3900088E05466
:1000B6007FF0E49000A7F0A3F09000A67405F0800E
:1000C6001D9000A7E475F0011207AEFED3E5F0948B
:1000D600B8EE940B4008C2A39000A67401F09000FD
:1000E60087E0FEA3E0FF20E0030204D0E49000A72F
:1000F600F0A3F09000A67402F0D2A3EF20E603026C
:1001060004D0EE4402900087F0A3EFF022D2809054
:10011600007A7414F09000A8E004F070069000A72E
:10012600E004F09000A7E0FEA3E0FFBE0108BFF4E4
:1001360005D28ED2A822EF64BC7003EE640260037F
:100146000204D09000A7F0A3F090007FE0FF90009B
:100156009CE4F0A3EFF09000A67403F02290009EBA
:10016600E0FEA3E0FF90009CE0FCA3E0FDC39FEC53
:100176009E506E900085E0FFED9FEC9400402F901E
:1001860000A7E475F0011207AEFED3E5F09414EE75
:10019600940050030204D0E49000A7F0A3F090006E
:1001A6009DE004F0703590009CE004F0802D9000F6
:1001B600A7E475F0011207AEFED3E5F09419EE94AC
:1001C6000050030204D0E49000A7F0A3F090009D35
:1001D600E004F0700690009CE004F090009C02049D
:1001E60057E49000A7F0A3F09000A674040204BCA4
:1001F60090009EE0FEA3E0FF1213AD90007AEFF0B0
:1002060090009EE0FEA3E0FF90009CE0FCA3E0FDD2
:10021600D39FEC9E402C9000A7E475F0011207AE28
:10022600FAD3E5F09419EA94004048E49000A7F068
:10023600A3F090009DE024FFF090009CE034FFF0D6
:100246008031C3ED9FEC9E502A9000A7E475F00123
:100256001207AEFED3E5F09419EE94004015E49033
:1002660000A7F0A3F090009DE004F0700690009CBB
:10027600E004F0900088E020E62E9000A8E004F06C
:1002860070069000A7E004F0D39000A8E094B89020
:1002960000A7E0940B4011E4F0A3F0900088E0542E
:1002A6007FF09000A67405F0900088E030E003022D
:1002B60004D0E49000A7F0A3F09000A67406F02204
:1002C600900088E04404F0900073E0700A90007A91
:1002D6007408F07F018020900073E0B4010A90005A
:1002E6007A740BF0E4FF800F900073E0B4020B9079
:1002F600007A7415F0E4FF122657900087A3E030C9
:10030600E5229000A630E0057402F080037406F042
:10031600900088E054FBF090007B74FFF0E49000BE
:10032600A7F0A3F0900088E030E71654FBF09000A9
:100336007B74FFF0E49000A7F0A3F09000A674048D
:10034600F0900088E020E6030204D054FBF0900011
:100356007B74FFF090007A7411F09000A7E475F0BA
:10036600011207AEFED3E5F094A0EE940F500302FF
:1003760004D0E49000A7F0A3F0900088E030E004F9
:100386007F0480027F009000A6EFF022900085E0B7
:10039600FFD390009DE09F90009CE0940040309039
:1003A60000A7E475F0011207AEFED3E5F09405EE62
:1003B600940050030204D0E49000A7F0A3F090004C
:1003C6009DE024FFF090009CE034FFF0020457907B
:1003D6000081E0FFD390009DE09F90009CE0940098
:1003E600402F9000A7E475F0011207AEFED3E5F0AA
:1003F6009414EE940050030204D0E49000A7F0A3F6
:10040600F090009DE024FFF090009CE034FFF08027
:100416004090007FE0FFD390009DE09F90009CE01D
:100426009400403B9000A7E475F0011207AEFED39E
:10043600E5F0941EEE940050030204D0E49000A769
:10044600F0A3F090009DE024FFF090009CE034FFC4
:10045600F0E0FEA3E0FF1213AD90007AEFF02290D9
:1004660000A7E475F0011207AEFED3E5F094C8EEDE
:1004760094004056900088E054FDF0D281C28EC2AE
:10048600A8E49000A7F0A3F09000A67407F02290CD
:1004960000A7E475F0011207AEFED3E5F094F4EE82
:1004A6009401402690007A7414F0C280E49000A76C
:1004B600F0A3F09000A6F0900088E054DFF022E46C
:0B04C6009000A7F0A3F09000A6F02229
:1004D1009000A6E0603E24FE70030205A624FE7093
:1004E100030205ED14700302064A24FE700302069E
:1004F100E624066003020716900087A3E020E006C9
:1005010030E603020721E49000A7F0A3F09000A6D3
:10051100F0D2A32290007A7414F0900088E020E6D3
:100521002D9000A7E475F0011207AEFED3E5F0941B
:10053100B8EE940B4035D2A3900088E0547FF0E4EC
:100541009000A7F0A3F09000A67405F0801D900024
:10055100A7E475F0011207AEFED3E5F094B8EE946E
:100561000B4008C2A39000A67401F0900087A3E09D
:10057100FF20E003020721E49000A7F0A3F0900020
:10058100A67402F0D2A3900086E0FD90009CE4F0F6
:10059100A3EDF0EF20E603020721900087E044027B
:1005A100F0A3E0F022D28090007A7414F09000A8B9
:1005B100E004F070069000A7E004F09000A7E0646A
:1005C100017004A3E064F46003020721D28ED2A873
:1005D100900086E0FF7E0090009CEEF0A3EFF0A378
:1005E100EEF0A3EFF09000A67404F02290009EE0DC
:1005F100FEA3E0FF1213AD90007AEFF0900088E0C7
:1006010020E62E9000A8E004F070069000A7E00418
:10061100F0D39000A8E094B89000A7E0940B4011AB
:10062100E4F0A3F0900088E0547FF09000A67405F8
:10063100F0900088E030E003020721E49000A7F089
:10064100A3F09000A67406F022900088E04404F024
:10065100900073E0700A90007A7408F07F018020A6
:10066100900073E0B4010A90007A740BF0E4FF800B
:100671000F900073E0B4020B90007A7415F0E4FF60
:10068100122657900088E030E71654FBF090007B6B
:1006910074FFF0E49000A7F0A3F09000A67404F0BA
:1006A100900088E030E67954FBF090007B74FFF015
:1006B10090007A7411F09000A7E475F0011207AE72
:1006C100FED3E5F094A0EE940F4055E49000A7F01E
:1006D100A3F0900088E030E0047F0480027F009066
:1006E10000A6EFF0229000A7E475F0011207AEFE1C
:1006F100D3E5F094F4EE9401402690007A7414F05E
:10070100C280E49000A7F0A3F09000A6F0900088CA
:10071100E054DFF022E49000A7F0A3F09000A6F0EF
:0107210022B5
:0E276A00900087E030E3030200461204D12203
:101ACD0041010D0042010E000041011000410111C4
:011ADD000008
:1024AD00900087E03082084408F0A3E0F0800354E8
:1024BD00F7F030930280083094028003309214902C
:1024CD000087E04410F0A3E0F0900087E054EFF0B7
:0424DD0054EFF022A6
:1015D40090010DE014601F14605E14700302168EF7
:1015E400240360030216D530B30930B60630B703BE
:1015F4000216D502168630B30630B60320B72D90F6
:10160400010DE004F020B3099001107401F00216FA
:10161400D520B6099001107402F00216D530B70334
:101624000216D59001107403F00216D5E49001104F
:10163400F090010DF00216D530B33230B62F30B72A
:101644002CE490010DF0A3F0A3F0A3E0FEB4010597
:10165400E4F07F0122EEB40208E4900110F07F026E
:1016640022900110E0B40305E4F07F032290010E00
:10167400E475F0011207AEFED3E5F09432EE940067
:10168400404F90010DE004F0804790010EE475F0A6
:10169400011207AEFEC3E5F09432EE94004032E44A
:1016A40090010EF0A3F020B3037F112220B6037F34
:1016B400122220B7037F132230B31630B61330B78B
:1016C40010E4900110F090010DF0A3F0A3F07FFF5F
:0316D400227F0072
:0116D70022F0
:10113D00E49000AAF0A3F0900088E030E5030212DD
:10114D00741215D4EF700302127424FE7003021191
:10115D00E614700302122124F2603714607B1470C0
:10116D00030212212414700302126F24FE60030285
:10117D001274900088E030E00454FE8006900088E0
:10118D00E04401F04420F0900087E04401F0A3E03A
:10119D00F022900111E004F0E0D394FA400374FAC8
:1011AD00F0900111E004F0640C6003021274122738
:1011BD00DF9000AAEFF07005E06401600302267471
:1011CD009000AAE070047F01800C9000AAE06401F9
:1011DD006003021274FF0226EF900088E020E00306
:1011ED000212744480F0900087E04402F0A3E0F016
:1011FD00E49000A7F0A3F090009EE0FEA3E0FF12A4
:10120D0013AD9000ABEFF0E014F0C39401503B74BC
:10121D0001F08036900088E030E04C4480F0900082
:10122D0087E04402F0A3E0F0E49000A7F0A3F09073
:10123D00009EE0FEA3E0FF1213AD9000ABEFF0E0D7
:10124D0004F0D3940A4003740AF09000ABE0247CC0
:10125D00F582E43400F583E0FF90009EE4F0A3EF07
:07126D00F022E4900111F0F2
:011274002257
:1026C3000028B6BA78DADEA8FFFB7DFD5FC73FD7E7
:0626D300D546F56FEF1083
:051ADE004200ED00963E
:1025A000E4FEEFA806088002C333D8FC30E704D26B
:1025B000968002C296C2950000D2950EEEB408E253
:0625C000C2970000D29753
:0125C60022F2
:0D000E0090007B74FFF09000EBF0A3F02257
:101BC900900088E030E27B9000E8E0FB6032900012
:101BD900EDE0FCA3E0FDC39000EAE09D9000E9E0A0
:101BE9009C401D90007BE0FE9000EBE0FDEE4D90E7
:101BF900007BF0E49000E9F0A3F09000E8F0803475
:101C0900EB70319000EDE0FEA3E0FFC39000EAE045
:101C19009F9000E9E09E401C90007BE0FF9000EC63
:101C2900E0FEEF5E90007BF0E49000E9F0A3F09015
:101C390000E804F09000EAE004F070069000E9E0A2
:031C490004F02282
:102657009000EB74FFF0E4A3F0EF7007A3F0A3740E
:0D26670096F0229000EDE4F0A37419F0222B
:0927AB009000EB74FFF0A3F02292
:1026350090007BE0FF90007AE05F90007CF0D394FF
:102645001540037415F090007CE09026C393FF02BB
:0226550025A0BE
:1013AD00E4FD90007DE0FB7A00C3EF9BEE9A5003C5
:1013BD000214CCC3EF9BEE9A401190007EE0FBEF40
:1013CD009BEE940050057D010214CC90007EE0FB55
:1013DD00C3EF9BEE9400400FA3E0FBEF9BEE940058
:1013ED0050057D020214CC90007FE0FBC3EF9BEE15
:1013FD009400400FA3E0FBEF9BEE940050057D039E
:10140D000214CC900080E0FBC3EF9BEE9400400FE4
:10141D00A3E0FBEF9BEE940050057D040214CC90ED
:10142D000081E0FBC3EF9BEE9400400FA3E0FBEFC8
:10143D009BEE940050057D050214CC900082E0FBDC
:10144D00C3EF9BEE9400400EA3E0FBEF9BEE9400E8
:10145D0050047D068069900083E0FBC3EF9BEE9402
:10146D0000400EA3E0FBEF9BEE940050047D07803F
:10147D004E900084E0FBC3EF9BEE9400400EA3E082
:10148D00FBEF9BEE940050047D088033900085E0C7
:10149D00FB7A00C3EF9BEE9A4012EB2416FBEA3366
:1014AD00FAC3EF9BEE9A50047D098013900085E0FE
:1014BD002416FBE433FAC3EF9BEE9A40027D0AAF8C
:0114CD000519
:0114CE0022FB
:051AE30042011F00009C
:1024E100E49000AAF0A3F0A3F090009CE0FEA3E02A
:1024F100FFC374FA9FFFE49EFE7C007D1112079CCE
:10250100900095E02FFF900094E03E90011FF0A312
:02251100EFF0E9
:0125130022A5
:101AE80042008700004A008919324B647D96AFC8CE
:101AF800E1FA4A007D141B2532415367788AFA536C
:101B080000931900FA0FA0005000FA000000FA0034
:051B18000000000000C8
:101B1D004101120041011300420114000041011660
:011B2D0000B7
:101DBC00E49000AAF01227DF9000AAEFF00460462E
:101DCC0014B406005057901DD9F8282873021DEB47
:101DDC00021DF9021DF9021E04021E04021E2F90A0
:101DEC000088E054BFF04408F054EFF022900088D3
:101DFC00E054BFF044108009900088E04440F05457
:101E0C00EFF054F7F022900113E004F0D3943C402F
:101E1C0012E4F0900088E054BFF00226749000AAFF
:031E2C0074FFF050
:011E2F002290
:101CCE00E49000AAF0A3F0900087E030E0189000B6
:101CDE008754FEF0A3E030E0047F0180027F00AD68
:101CEE00077F011223BC900087E030E14B90008704
:101CFE0054FDF090009EE0FEA3E0FF7C007D0312F9
:101D0E00079CEEC313FEEF13FF9000AAEEF0A3EFB5
:101D1E00F0D394FFEE940040099000AAE4F0A3746F
:101D2E00FFF09000AAE0FEA3E0FFE4FCFD9000CAE5
:081D3E001208F37F0212186580
:011D4600227A
:10199D00900087E020E203021A2C900116E01460FB
:1019AD001A14603814605824037074900088E04451
:1019BD0002F0C281D2809001168040900114E4752E
:1019CD00F0011207AEFED3E5F09432EE9400404FD5
:1019DD00C280E4900114F0A3F0A3801F900114E4E1
:1019ED0075F0011207AEFED3E5F09432EE9400408F
:1019FD002ED280E4900114F0A3F0A3E004F0229025
:101A0D000114E475F0011207AEFED3E5F09432EE49
:0F1A1D009400400BC280E4900114F0A3F0A3F0FA
:011A2C002297
:051B2E0042012300004C
:101EA300EFC39430400CEFD39439500674D02FFF16
:101EB3008022EFC39441400CEFD394465006EF24A5
:101EC300C9FF8010EFC39461400AEFD394665004B6
:101ED300EF24A9FFEF540FC454F0FFEDC394304037
:101EE3000CEDD39439500674D02DFD801EEDC394B0
:101EF300414008EDD394465002800CEDC3946140F9
:101F03000AEDD394665004ED24A9FDED540F4FFF61
:011F130022AB
:0B1D47009000B8EBF0A3EAF0A3E9F075
:101D5200A31208FF000000009000B8E0FBA3E0FA25
:101D6200A3E04A4B7005FFFEFDFC229000BB120867
:101D7200FF000000009000B8E0FBA3E475F0011240
:101D820007C4A9F0FA12072260219000BBE0FCA36D
:101D9200E0FDA3E0FEA3E02401FFE43EFEE43DFDFE
:101DA200E43CFC9000BB1208F380CA9000BBE0FC4C
:091DB200A3E0FDA3E0FEA3E0FFA5
:011DBB002205
:0B2239009000D6EBF0A3EAF0A3E9F060
:102244009000DCEBF0A3EAF0A3E9F09000D6E0FB09
:10225400A3E0FAA3E04A4B7004FBFAF9229000DAF7
:1022640074FFF5F01207C445F060169000DCE0FB43
:10227400A3E475F0011207C4A9F0FAED120768800F
:0C228400DC9000D6E0FBA3E0FAA3E0F938
:01229000222B
:0B0D1A009000BFEBF0A3EAF0A3E9F0AB
:100D25009000C7EBF0A3EAF0A3E9F09000C2E0F968
:100D3500A3E0FAA3E09000CAC9F0A3EAF0A3E9F0A2
:100D45009000BFE0FBA3E0FAA3E04A4B600CA3E0F0
:100D5500FBA3E0FAA3E04A4B70077B007A00790019
:100D6500229000CAE0FBA3E0FAA3E0F9C003C002A9
:100D7500C0019000C7A3E0FAA3E0F9D3D082D083E5
:100D8500D0E0E99582EA958340339000CAA3E0FA62
:100D9500A3E0F99000C5E0FEA3E0FFE92FF9EA3EE4
:100DA500FAC003C002C001A3A3E0FAA3E0F9D3D0BF
:100DB50082D083D0E0E99582EA95834056E490009D
:100DC500CDF0A3F09000C5E0FEA3E0FF9000CDE0DC
:100DD500FCA3E0FDC39FEC9E4003020E759000CA84
:100DE500E0FBA3E0FAA3E0F98D828C8312073BFFB9
:100DF5009000C7E0FBA3E0FAA3E0F98D828C83EFB6
:100E050012077A9000CEE004F070069000CDE00461
:100E1500F080B19000C5E0FFA3E09000CDCFF0A336
:100E2500EFF09000CDE0FEA3E0FFD39400EE940038
:100E3500403E9000CAE0FBA3E0FAA3E0F9EF24FFEF
:100E4500FFEE34FFFE8F82F58312073BFD9000C74E
:100E5500E0FBA3E0FAA3E0F98F828E83ED12077A17
:100E65009000CEE024FFF09000CDE034FFF080B29A
:0B0E75009000BFE0FBA3E0FAA3E0F94F
:010E8000224F
:0B1FEA009000DFEBF0A3EAF0A3E9F0A9
:101FF5009000E5EBF0A3EAF0A3E9F09000E2E0FB46
:10200500A3E0FAA3E0F912072260289000E2A3E416
:1020150075F0011207C4A9F0FA120722FF9000DF3C
:10202500E0FBA3E475F0011207C4A9F0FAEF12076B
:102035006880C89000DFE0FBA3E0FAA3E0F9E412B2
:0D20450007689000E5E0FBA3E0FAA3E0F9D6
:01205200226B
:101E30009000F6EBF0A3EAF0A3E9F09000F6E0FBE7
:101E4000A3E0FAA3E0F9120722FF60299000F9E06D
:101E5000FBA3E0FAA3E0F91207226019B507169078
:101E600000F7E475F0011207AE9000FAE475F00196
:101E70001207AE80C69000F9E0FBA3E0FAA3E0F9F8
:101E8000120722FF3395E0FE9000F6E0FBA3E0FA94
:101E9000A3E0F9120722FD3395E0FCC3ED9FFFECB0
:031EA0009EFE2281
:10211D009001171208F3900117E0FCA3E0FDA3E076
:10212D00FEA3E0FF78181208B9EF120768900117A7
:10213D00E0FCA3E0FDA3E0FEA3E0FF78101208B9D8
:10214D00900001EF12077A900117E0FCA3E0FDA3C8
:10215D00E0FEA3E0FF78081208B9900002EF120725
:10216D007A900117A3A3A3E0FF900003EF02077A73
:0B1275009000CBEBF0A3EAF0A3E9F03F
:10128000A31208FF00000000120722FFE4FCFDFE8D
:101290009000CE1208F39000CEE0FCA3E0FDA3E0A6
:1012A000FEA3E0FF78081208E09000CE1208F39049
:1012B00000CEE0F8A3E0F9A3E0FAA3E0FBC000C091
:1012C00001C002C0039000CBE0FBA3E0FAA3E0F969
:1012D00090000112073BFFD003D002D001D000EBF9
:1012E0004FFFEAFEE9FDE8FC9000CE1208F3900003
:1012F000CEE0FCA3E0FDA3E0FEA3E0FF7808120827
:10130000E09000CE1208F39000CEE0F8A3E0F9A33D
:10131000E0FAA3E0FBC000C001C002C0039000CB14
:10132000E0FBA3E0FAA3E0F990000212073BFFD034
:1013300003D002D001D000EB4FFFEAFEE9FDE8FC4C
:101340009000CE1208F39000CEE0FCA3E0FDA3E0F5
:10135000FEA3E0FF78081208E09000CE1208F39098
:1013600000CEE0F8A3E0F9A3E0FAA3E0FBC000C0E0
:1013700001C002C0039000CBE0FBA3E0FAA3E0F9B8
:1013800090000312073BFFD003D002D001D000EB46
:101390004FFFEAFEE9FDE8FC9000CE1208F3900052
:0C13A000CEE0FCA3E0FDA3E0FEA3E0FF14
:0113AC00221E
:0627D300900003E0FF226C
:10267400E4900003F0FDFC7F04121F80E49000004E
:0C268400F09000007407F0A3746AF022CC
:0627D900900001E0FF2268
:0226EF00AD0735
:1026F100E4FF900001F0FE122574EFFD7C007F05E0
:03270100021F8034
:0627DF00900073E0FF22F0
:0827B400E4FDFC7F0E021F8012
:0827BC00E4FDFC7F25021F80F3
:0E217D009000FCEFF0A3EBF0A3EAF0A3E9F072
:10218B00E4FFFE900002E0B401020F229000FCE09D
:10219B00FD122574E4FD122574900100E0FD12255B
:1021AB0074900101E0FD1225749000FDE0FBA3E0AB
:1021BB00FAA3E0F9A3E0FDA3E09000BDCDF0A3ED01
:0F21CB00F0121F1DAD07AC067F07121F807F01AA
:0121DA0022E2
:0723BC009000C5EDF0AC0735
:1023C300E4FFFE900002E0B401020F22AD041225E7
:1023D300747D01122574E4FD1225747D01122574A8
:1023E3009000C5E07003FD80027D01122574AD07E6
:0923F300AC067F07121F807F0178
:0123FC0022BE
:02186500AD07CD
:10186700E4FFFE900002E0B401020F221225747D0E
:1018770002122574E4FD1225747D04122574C00636
:10188700C0079000CAE0FCA3E0FDA3E0FEA3E0FFD1
:1018970078181208B9AD07D007D006122574C0060C
:1018A700C0079000CAE0FCA3E0FDA3E0FEA3E0FFB1
:1018B70078101208B9AD07D007D006122574C006F4
:1018C700C0079000CAE0FCA3E0FDA3E0FEA3E0FF91
:1018D70078081208B9AD07D007D006122574C006DC
:1018E700C0079000CAE0FCA3A3A3E0FFE4AD07D0C4
:1018F70007D006122574AD07AC067F07121F807F3D
:0119070001DE
:0119080022BC
:0E21DB00900102EFF0A3EBF0A3EAF0A3E9F00D
:1021E900E4FFFE900002E0B401020F22900102E038
:1021F900FD1225747D03122574900106E0FD122558
:1022090074900107E0FD122574900103E0FBA3E03F
:10221900FAA3E0F9A3E0FDA3E09000BDCDF0A3EDA2
:0F222900F0121F1DAD07AC067F07121F807F014B
:012238002283
:07243D00900125EDF0AC0752
:10244400E4FFFE900002E0B401020F22AD04122565
:10245400747D04122574E4FD1225747D0112257423
:10246400900125E0FD122574AD07AC067F07121F0D
:03247400807F0165
:012477002242
:020FE100AD075A
:100FE300E49000F4F0A3F0900002E0B401037F0169
:100FF300229000F4E0FEA3E0FF1225749000F4EECB
:10100300F0A3EFF07D051225749000F4EEF0A3EF4A
:10101300F0E4FD1225749000F4EEF0A3EFF09000DD
:10102300F0E0FCA3E0FDA3E0FEA374FFFFE47BFF7D
:10103300FAF9F8C31208A870209000F4E0FEA3E0C8
:10104300FF7D011225749000F4EEF0A3EFF0900001
:10105300F0A3A3A3E0FD0211229000F0E0FCA3E0C3
:10106300FDA3A374FFFFFEE47BFF7AFFF9F8C3122D
:1010730008A89000F47009E0FEA3E0FF7D0280570A
:10108300E0FEA3E0FF7D041225749000F4EEF0A3CC
:10109300EFF0C006C0079000F0E0FCA3E0FDA3E082
:1010A300FEA3E0FF78181208B9AD07D007D00612E7
:1010B30025749000F4EEF0A3EFF0C006C007900093
:1010C300F0E0FCA3E0FDA3E0FEA3E0FF781012082C
:1010D300B9AD07D007D0061225749000F4EEF0A343
:1010E300EFF0C006C0079000F0E0FCA3E0FDA3E032
:1010F300FEA3E0FF78081208B9AD07D007D00612A7
:1011030025749000F4EEF0A3EFF0C006C007900042
:10111300F0E0FCA3A3A3E0FFE4AD07D007D00612E1
:1011230025749000F4EEF0A3EFF09000F4E0FCA33C
:09113300E0FD7F07121F807F011F
:01113C002290
:0D2786009000C5ECF0A3EDF0120722FF2239
:0D279300900121ECF0A3EDF0120722FF22CF
:0B27A0009000C9ECF0A3EDF0021275F0
:1016D8009000A9EFF0900077E0FBA3E0FAA3E0F90F
:1016E800C003C002C001900074A3E0FAA3E0F9D3DC
:1016F800D082D083D0E0E99582EA95834023900098
:1017080077A3E0FAA3E0AE02FF900074A3E0FAA387
:10171800E09FFFEA9EFEC3EF9417EE64809480502A
:101728007C900077E0FBA3E0FAA3E0F9C003C002D5
:10173800C001900074A3E0FAA3E0F9C3D082D0837B
:10174800D0E0E99582EA95835019900074A3A3E04C
:10175800AE02FF900077A3E0FAA3E0C39FFFEA9EE2
:101768004F603A900074A3E0FAA3E0C39000739529
:1017780082EA9583400E9000747401F0A37400F01F
:10178800A3745CF09000A9E0FF900074E0FBA3E470
:0E17980075F0011207C4A9F0FAEF12076822DB
:10095600E49000AAF0A3F0A3F0A3F0C3900124E072
:10096600941F900123E094005026122478EFD3942C
:1009760000401D1220BA900123E475F0011207C44D
:10098600FC740425F0F58274003CF583EFF080CB0F
:10099600C3900124E09407900123E09400500302E1
:1009A6000B499000AAE0FEA3E0FFC3900124E09F5C
:1009B600FD900123E09EFCC3ED9407EC94005003E8
:1009C600020AFC74042FF58274003EF583E0645538
:1009D60060109000ABE004F070C89000AAE004F04C
:1009E60080C09000AAE0FEA3E0FF2405F582740013
:1009F6003EF583E064AA60109000ABE004F070A2BC
:100A06009000AAE004F0809A74062FF58274003EE6
:100A1600F583E060099000ABE02402020AD790005B
:100A2600AAE0FCA3E0FD2408F58274003CF583E00F
:100A36009000ACF0A3E4F074092DF58274003CF547
:100A460083E02407FFE433FE9000ADE02FF0900032
:100A5600ACE03EF0E0FEA3E0FFD39426EE94004027
:100A6600089000ABE0240380689000AAE0FCA3E0B5
:100A7600FDC3900124E09DFD900123E09CFCD3EF93
:100A86009DEE9C50719000AAE0FEA3E02404F97448
:100A9600003EFA7B019000ADE024FFFD9000ACE043
:100AA60034FFFC1222E5AD079000ACE0FAA3E0FBB0
:100AB6009000AAE0FEA3E0FF2BFBEE3AFA74032BAC
:100AC600F58274003AF583E06D60119000ABE02486
:100AD60003F09000AAE03400F00209A8120E8190FB
:100AE60000ACE0FEA3E0FF9000ABE02FF09000AA80
:100AF600E03EF00209A89000AAE0FEA3E0FFC39042
:100B06000124E09FFD900123E09EFCF0A3EDF0D3CD
:100B16009400EC9400402C74042FF974003EFA9073
:100B260000C27401F0A3EAF0A3E9F0900123E0FF0C
:100B3600A3E09000C5CFF0A3EFF07B017A00790423
:030B4600120D1A73
:010B49002289
:102612009000747401F0A37400F0A3745CF0900055
:10262200777401F0A37400F0A3745CF090007374EB
:03263200FFF02294
:071B330044011B0101020245
:03000600022704CA
:1023FD0090009EA3E09000B7F0900088E07E003042
:10240D00E0047F0180027F009000B8EEF0A3EFF0B2
:10241D009000B7E0FD7F011223BC9000B8E0FEA351
:10242D00E0FFE4FCFD9000CA1208F37F020218657C
:1025C700122786AD07EF9000886005E0440180037D
:1025D700E054FEF04420F07F011223BCEFB4010366
:0525E7007F01227F00CE
:0125EC0022CC
:101C4C001227A09000C51208F39000C5E0FCA3E099
:101C5C00FDA3E0FEA3E0FF78011208E0E47B03FAA9
:101C6C00F9F812081690009EEEF0A3EFF090007DAC
:101C7C00E0FD7C00C3EF9DEE9C500890009EECF0C4
:101C8C00A3EDF0C390009FE094A590009EE094001B
:101C9C00400D900086E0FF90009EE4F0A3EFF090E2
:101CAC0000C5E0FCA3E0FDA3E0FEA3E0FF9000CAAA
:101CBC001208F37F02121865EFB401037F01227F33
:011CCC000017
:011CCD0022F4
:10269000EF7007ED6014B4011122EDD3941E400ACF
:0B26A000900087E04404F0A3E0F0226B
:0B232F009000BFEBF0A3EAF0A3E9F080
:10233A00EF24FE601904702F9000BFE0FBA3E0FABF
:10234A00A3E0F9A3E0FCA3E0FD1225C780149000E6
:10235A00BFE0FBA3E0FAA3E0F9A3E0FCA3E0FD12CF
:0C236A001C4C9000C4EFF09000C4E0FF99
:012376002244
:0327E5007F02224E
:102514007B2270223A22007A476E53625A464F71E8
:102524006F30714348487300222C2276223A2200ED
:10253400312E302E3000222C226D223A0030007DC4
:012544000096
:041B3A004100000066
:082574009000CEEEF0A3EFF0A1
:10257C002429F974003EFA7B01ED1207689000CF14
:10258C00E004F070069000CEE004F09000CEE0FE87
:03259C00A3E0FFBA
:01259F002219
:091F14009000B7E0FF7E007BFFA6
:101F1D009000BAEBF0A3EAF0A3E9F09000B8EEF070
:031F2D00A3EFF02F
:101F30002429F974003EFA7B01C002C001A3E0F934
:101F4000A3E0FAA3E09000C2C9F0A3EAF0A3E9F08D
:101F50009000BDE0FFA3E09000C5CFF0A3EFF0D06C
:101F600001D002120D1A9000BDE0FEA3E0FF900028
:0F1F7000B9E02FF09000B8E03EF0E0FEA3E0FFF4
:011F7F00223F
:102291009000D0EBF0A3EAF0A3E9F0A3ECF0A3EDFA
:1022A100F09000D0E0FBA3E0FAA3E04A4B6034A336
:1022B100E07002A3E0602C9000D374FFF5F01207E8
:1022C100C445F0601E9000D0E0FBA3E0FAA3E0F962
:1022D100120722FF1200069000D1E475F0011207E7
:0422E100AE80D422D5
:1022E5009000D0EBF0A3EAF0A3E9F0A3ECF0A3EDA6
:0122F500F0F8
:1022F600E4A3F0FFFED39000D4E09F9000D3E09ECD
:1023060040219000D0E0FBA3E475F0011207C4A9B8
:10231600F0FA120722FD9000D5E02DF00FBF000164
:082326000E80D29000D5E0FF0B
:01232E00228C
:081F80009000CEECF0A3EDF09F
:101F88009000237455F0A374AAF0A37403F0A3EF90
:101F9800F09000CEE0FCA3E0FDEC900027F0EDA36C
:101FA800F09000CFE02407F09000CEE03400F07B02
:101FB800017A007923A3E024FFFD9000CEE034FFEE
:101FC800FC1222E5AE079000CEE0FCA3E0FD24223F
:101FD800F58274003CF583EFF07B017A00792302E7
:021FE800229144
:1025ED00E4FF900000E0700DFEFD122574900000D8
:1025FD007401F080077E007D01122574EFFD7C00D3
:05260D00E4FF021F8044
:1014CF00E49000B7F07BFF7A257914121D47900046
:1014DF00BDEEF0A3EFF07A257914121F149000B728
:1014EF00EFF07BFF7A25791B121D479000BDEEF0C0
:1014FF00A3EFF07A25791B121F149000B7EFF07B42
:10150F00FF7A25792C121D479000BDEEF0A3EFF066
:10151F009000B7E0FF7E007BFF7A25792C121F1D0C
:10152F009000B7EFF07BFF7A257934121D479000BA
:10153F00BDEEF0A3EFF09000B7E0FF7E007BFF7AE7
:10154F00257934121F1D9000B7EFF07BFF7A2579B4
:10155F003A121D479000BDEEF0A3EFF09000B7E0F8
:10156F00FF7E007BFF7A25793A121F1D9000B7EF9F
:10157F00F07BFF7A257941121D479000BDEEF0A355
:10158F00EFF09000B7E0FF7E007BFF7A25794112E4
:10159F001F1D9000B7EFF07BFF7A257943121D478F
:1015AF009000BDEEF0A3EFF09000B7E0FF7E007B60
:1015BF00FF7A257943121F1D9000B7EFF0FD7C00D5
:0515CF007F01021F80F6
:0827C400E4FDFC7F02021F800E
:052545009000BEEFF064
:10254A001227E5E4FEEEC39F501D75F002EEA424A7
:10255A001BF582E5F03401F583E0FD9000BEE0FC56
:09256A00ED6C60030E80DEAF068B
:012573002245
:0B1B43009000B7EBF0A3EAF0A3E9F07C
:101B4E001207229000BAF0FD90000112073B9000A0
:101B5E00BBF090000212073B9000BCF0A3E4F090A3
:101B6E00000312073BFF9000BDE02FF09000BCE099
:101B7E003400F0AF0512254575F002EFA4241CF5D4
:101B8E0082E5F03401F583E0FF9000BBE06F600367
:101B9E007F00229000BAE0FF9000B7E0FBA3E0FACE
:101BAE00A3E02404F9E43AFA9000BCE0FDA3E0902F
:0A1BBE0000C2CDF0A3EDF012232FBA
:011BC80022FA
:080E81009000AEEEF0A3EFF0CB
:100E89009000AEE0FEA3E02407F58274003EF583EE
:100E9900E0FF1209300EBD000EC0010EC3020EC6DE
:100EA900030EE3040EE8050EEF060FB8080FBB0E9C
:100EB90000000FE00225ED0214CF0227C49000AE16
:100EC900E0FEA3E0240AF58274003EF583E0900079
:100ED90073F0E4FDFC7F03021F8090000380039000
:100EE90000017401F0229000AEE0FCA3E0FD2408AB
:100EF900F58274003CF583E09000B5F0A3E4F0744A
:100F0900092DF58274003CF583E0FF9000B6E02FCF
:100F1900F09000B5E03400F0E49000B3F0A3F09055
:100F290000B5E0FEA3E0FFC39000B4E09F9000B3DA
:100F3900E09E4003020FE0E0FEA3E0FF9000AEE078
:100F4900FCA3E0FD2FFBEC3EFA740C2BF582740038
:100F59003AF583E09000B0F0A3E4F0740D2BF5822C
:100F690074003AF583E0FF9000B1E02FF09000B0F3
:100F7900E03400F0740A2DF974003CFA7B0190000A
:100F8900B3E0FEA3E029F9EA3EFA121B439000B24E
:100F9900EFF09000B1E02404FF9000B0E03400FECF
:100FA9009000B4E02FF09000B3E03EF0020F280269
:100FB90023FD9000AEE0FEA3E0FF240AF582740051
:100FC9003EF583E0FD740B2FF58274003EF583E056
:070FD900FEAF05FD1226909A
:010FE00022EE
:10247800900077E0FBA3E0FAA3E0F9C003C002C034
:1024880001900074E0FBA3E0FAA3E0F9D082D083C6
:10249800D0E06B7008E965827003EA658360037FAA
:0524A80001227F00226B
:1020BA00900074E0FBA3E0FAA3E0F9C003C002C0F9
:1020CA0001A3E0FBA3E0FAA3E0F9D082D083D0E039
:1020DA006B7008E965827003EA6583603590007762
:1020EA00A3E0FAA3E0C39000739582EA9583400EB9
:1020FA009000777401F0A37400F0A3745CF0900070
:10210A0077E0FBA3E475F0011207C4A9F0FA1207FD
:02211A0022FFA2
:01211C0022A0
:041B3E00410126003B
:10271800538E7F5389F0758A83758CFFC28DD2A939
:03272800D28C222E
:0E277800538EBF53890F438910C28FD2AB22FC
:03000B0002272B9E
:10272B00C0E0C083C0829001267401F0D082D083B8
:03273B00D0E032B9
:03001B000226AB0F
:1026AB00C0E0C083C082900088E04402F0C281C2C7
:0826BB008ED082D083D0E03202
:0C0B4A009000ABF09000AA7401F07F0353
:100B5600EFD3940540037F0122120722FED39403AC
:100B660040037F0222EF7041EE700B9000011207E6
:100B76003BF452935294120722B4010B90000112D7
:100B8600073B4293F45294120722FEB4020A9000E5
:100B96000112073B42934294EEB4030D90000112FA
:100BA600073BFEF45293EE4294EF64017043120742
:100BB60022FE700B90000112073BF452915292EE06
:100BC600B4010B90000112073B4291F452921207B6
:100BD60022B4020A90000112073B42914292120788
:100BE60022B4030D90000112073BFEF45291EE422F
:100BF60092EF64027043120722FE700B90000112FE
:100C0600073BF452955296EEB4010B900001120781
:100C16003B4295F45296120722B4020A9000011242
:100C2600073B42954296120722B4030D900001122B
:100C3600073BFEF45295EE4296EF640370431207AB
:100C460022FE700B90000112073BF452B152B2EE35
:100C5600B4010B90000112073B42B1F452B21207E5
:100C660022B4020A90000112073B42B142B21207B7
:100C760022B4030D90000112073BFEF452B1EE427E
:100C8600B2EF64047043120722FE700B900001124B
:100C9600073BF452B352B4EEB4010B9000011207B5
:100CA6003B42B3F452B4120722B4020A9000011276
:100CB600073B42B342B4120722B4030D900001125F
:100CC600073BFEF452B3EE42B4EF640570431207DD
:100CD60022FF700B90000112073BF452C952CAEF73
:100CE600B4010B90000112073B42C9F452CA120725
:100CF60022B4020A90000112073B42C942CA1207F7
:100D060022B4030D90000112073BFFF452C9EF42D3
:040D1600CA7F00226E
:101909009000AB74FFF0E49000AAF07B017A0079B3
:10191900AAFF120B569000AB74FFF0E49000AAF0F6
:101929007F01120B569000AB74FFF0E49000AAF00F
:101939007F02120B569000AB74FFF0E49000AAF0FE
:101949007F03120B569000AB74FFF0E49000AAF0ED
:101959007F04120B569000AB74FFF0E49000AAF0DC
:101969007F05120B569000AB7401F09000AA740326
:10197900F0E4FF120B569000AB7408F09000AA74C3
:1019890003F07F02120B567440120B4A7480120B3B
:031999004A7F0082
:01199C002228
:10273E0075BA8090FE00E4F0A37404F0E4F5BA22BA
:0727CC00C289C288D2A822D5
:0300030002205385
:10205300C0E0C083C082C0D075D000C000C003C040
:1020630004C005C006C00730B238900088E054FDB4
:10207300F0D28190011FA3E0FBC374FF9BFF8F8B02
:1020830090011FE0FEA3E0FBC374FF9BFF74FF9E60
:10209300FEE49400FDE49400FC78081208CC8F8DD4
:1020A300D28ED007D006D005D004D003D000D0D034
:0720B300D082D083D0E0329F
:1026D900759A50538EFB75D7F375D6FF438E104309
:0626E9009A1075AF0122FA
:102704008F9BE59A20E1047F0180027F00EF70F245
:04271400539AFD22B5
:030043000223771E
:10237700C0E0C0F0C083C082C0D075D000C000C02C
:1023870001C002C003C004C005C006C007E59A30FB
:10239700E008539AFEAF9B1216D8D007D006D00597
:1023A700D004D003D002D001D000D0D0D082D083C7
:0523B700D0F0D0E0327F
:03000000021A2DB4
:0C1A2D00787FE4F6D8FD758107021A747A
:10072200BB010689828A83E0225002E722BBFE02D5
:09073200E32289828A83E4932208
:10073B00BB010CE58229F582E5833AF583E0225073
:10074B0006E92582F8E622BBFE06E92582F8E222BD
:0D075B00E58229F582E5833AF583E49322D7
:10076800BB010689828A83F0225002F722BBFE0170
:02077800F3226A
:10077A00F8BB010DE58229F582E5833AF583E8F0B5
:10078A00225006E92582C8F622BBFE05E92582C861
:02079A00F22249
:10079C00EF8DF0A4A8F0CF8CF0A428CE8DF0A42E71
:0207AC00FE222B
:1007AE00C5F0F8A3E028F0C5F0F8E58215827002D6
:0607BE001583E038F02273
:1007C400A3F8E0C5F025F0F0E582158270021583E8
:0607D400E0C838F0E82245
:1007DA0075F008758200EF2FFFEE33FECD33CDCCD6
:1007EA0033CCC58233C5829BED9AEC99E582984059
:1007FA000CF582EE9BFEED9AFDEC99FC0FD5F0D636
:10080A00E4CEFBE4CDFAE4CCF9A88222B800C1B95F
:10081A000059BA002DEC8BF084CFCECDFCE5F0CB9D
:10082A00F97818EF2FFFEE33FEED33FDEC33FCEBD6
:10083A0033FB10D703994004EB99FB0FD8E5E4F991
:10084A00FA227818EF2FFFEE33FEED33FDEC33FC7E
:10085A00C933C910D7059BE99A4007EC9BFCE99A72
:10086A00F90FD8E0E4C9FAE4CCFB2275F010EF2FB7
:10087A00FFEE33FEED33FDCC33CCC833C810D707B7
:10088A009BEC9AE899400AED9BFDEC9AFCE899F8F2
:0E089A000FD5F0DAE4CDFBE4CCFAE4C8F92285
:1008A800EB9FF5F0EA9E42F0E99D42F0E89C45F0A6
:0108B800221D
:1008B900E8600FECC313FCED13FDEE13FEEF13FF1D
:0308C900D8F12241
:1008CC00E86010ECA2E713FCED13FDEE13FEEF1342
:0408DC00FFD8F0222F
:1008E000E8600FEFC333FFEE33FEED33FDEC33FC76
:0308F000D8F1221A
:0C08F300ECF0A3EDF0A3EEF0A3EFF02278
:1008FF00A8828583F0D083D08212091612091612AE
:10090F000916120916E473E493A3C583C5F0C583D2
:10091F00C8C582C8F0A3C583C5F0C583C8C582C842
:01092F0022A5
:10093000D083D082F8E4937012740193700DA3A356
:1009400093F8740193F5828883E47374029368606A
:06095000EFA3A3A380DF6A
:101A390002001EE493A3F8E493A34003F68001F2A5
:101A490008DFF48029E493A3F85407240CC8C333AE
:101A5900C4540F4420C8834004F456800146F6DF7D
:101A6900E4800B0102040810204080901AB9E47E3A
:101A7900019360BCA3FF543F30E509541FFEE49372
:101A8900A360010ECF54C025E060A840B8E493A339
:101A9900FAE493A3F8E493A3C8C582C8CAC583CA64
:101AA900F0A3C8C582C8CAC583CADFE9DEE780BE1C
:011B420000A2
:00000001FF
